{
	"VulnerablePiggyBank.sol": {
		"VulnerablePiggyBank": {
			"abi": [
				{
					"inputs": [],
					"stateMutability": "nonpayable",
					"type": "constructor"
				},
				{
					"inputs": [],
					"name": "attack",
					"outputs": [],
					"stateMutability": "nonpayable",
					"type": "function"
				},
				{
					"inputs": [],
					"name": "deposit",
					"outputs": [],
					"stateMutability": "payable",
					"type": "function"
				},
				{
					"inputs": [],
					"name": "owner",
					"outputs": [
						{
							"internalType": "address",
							"name": "",
							"type": "address"
						}
					],
					"stateMutability": "view",
					"type": "function"
				},
				{
					"inputs": [],
					"name": "withdraw",
					"outputs": [],
					"stateMutability": "nonpayable",
					"type": "function"
				}
			],
			"devdoc": {
				"kind": "dev",
				"methods": {},
				"version": 1
			},
			"evm": {
				"assembly": "    /* \"VulnerablePiggyBank.sol\":58:321  contract VulnerablePiggyBank {... */\n  mstore(0x40, 0x80)\n    /* \"VulnerablePiggyBank.sol\":119:157  constructor() { owner = msg.sender ; } */\n  callvalue\n  dup1\n  iszero\n  tag_1\n  jumpi\n  revert(0x00, 0x00)\ntag_1:\n  pop\n    /* \"VulnerablePiggyBank.sol\":143:153  msg.sender */\n  caller\n    /* \"VulnerablePiggyBank.sol\":135:140  owner */\n  0x00\n  0x00\n    /* \"VulnerablePiggyBank.sol\":135:153  owner = msg.sender */\n  0x0100\n  exp\n  dup2\n  sload\n  dup2\n  0xffffffffffffffffffffffffffffffffffffffff\n  mul\n  not\n  and\n  swap1\n  dup4\n  0xffffffffffffffffffffffffffffffffffffffff\n  and\n  mul\n  or\n  swap1\n  sstore\n  pop\n    /* \"VulnerablePiggyBank.sol\":58:321  contract VulnerablePiggyBank {... */\n  dataSize(sub_0)\n  dup1\n  dataOffset(sub_0)\n  0x00\n  codecopy\n  0x00\n  return\nstop\n\nsub_0: assembly {\n        /* \"VulnerablePiggyBank.sol\":58:321  contract VulnerablePiggyBank {... */\n      mstore(0x40, 0x80)\n      jumpi(tag_1, lt(calldatasize, 0x04))\n      shr(0xe0, calldataload(0x00))\n      dup1\n      0x3ccfd60b\n      eq\n      tag_2\n      jumpi\n      dup1\n      0x8da5cb5b\n      eq\n      tag_3\n      jumpi\n      dup1\n      0x9e5faafc\n      eq\n      tag_4\n      jumpi\n      dup1\n      0xd0e30db0\n      eq\n      tag_5\n      jumpi\n    tag_1:\n      revert(0x00, 0x00)\n        /* \"VulnerablePiggyBank.sol\":203:286  function withdraw() public { payable(msg.sender).transfer(address(this).balance); } */\n    tag_2:\n      callvalue\n      dup1\n      iszero\n      tag_6\n      jumpi\n      revert(0x00, 0x00)\n    tag_6:\n      pop\n      tag_7\n      tag_8\n      jump\t// in\n    tag_7:\n      stop\n        /* \"VulnerablePiggyBank.sol\":93:113  address public owner */\n    tag_3:\n      callvalue\n      dup1\n      iszero\n      tag_9\n      jumpi\n      revert(0x00, 0x00)\n    tag_9:\n      pop\n      tag_10\n      tag_11\n      jump\t// in\n    tag_10:\n      mload(0x40)\n      tag_12\n      swap2\n      swap1\n      tag_13\n      jump\t// in\n    tag_12:\n      mload(0x40)\n      dup1\n      swap2\n      sub\n      swap1\n      return\n        /* \"VulnerablePiggyBank.sol\":291:319  function attack() public { } */\n    tag_4:\n      callvalue\n      dup1\n      iszero\n      tag_14\n      jumpi\n      revert(0x00, 0x00)\n    tag_14:\n      pop\n      tag_15\n      tag_16\n      jump\t// in\n    tag_15:\n      stop\n        /* \"VulnerablePiggyBank.sol\":162:198  function deposit() public payable {} */\n    tag_5:\n      tag_17\n      tag_18\n      jump\t// in\n    tag_17:\n      stop\n        /* \"VulnerablePiggyBank.sol\":203:286  function withdraw() public { payable(msg.sender).transfer(address(this).balance); } */\n    tag_8:\n        /* \"VulnerablePiggyBank.sol\":240:250  msg.sender */\n      caller\n        /* \"VulnerablePiggyBank.sol\":232:260  payable(msg.sender).transfer */\n      0xffffffffffffffffffffffffffffffffffffffff\n      and\n        /* \"VulnerablePiggyBank.sol\":232:283  payable(msg.sender).transfer(address(this).balance) */\n      0x08fc\n        /* \"VulnerablePiggyBank.sol\":261:282  address(this).balance */\n      selfbalance\n        /* \"VulnerablePiggyBank.sol\":232:283  payable(msg.sender).transfer(address(this).balance) */\n      swap1\n      dup2\n      iszero\n      mul\n      swap1\n      mload(0x40)\n      0x00\n      mload(0x40)\n      dup1\n      dup4\n      sub\n      dup2\n      dup6\n      dup9\n      dup9\n      call\n      swap4\n      pop\n      pop\n      pop\n      pop\n      iszero\n      dup1\n      iszero\n      tag_21\n      jumpi\n      returndatacopy(0x00, 0x00, returndatasize)\n      revert(0x00, returndatasize)\n    tag_21:\n      pop\n        /* \"VulnerablePiggyBank.sol\":203:286  function withdraw() public { payable(msg.sender).transfer(address(this).balance); } */\n      jump\t// out\n        /* \"VulnerablePiggyBank.sol\":93:113  address public owner */\n    tag_11:\n      0x00\n      0x00\n      swap1\n      sload\n      swap1\n      0x0100\n      exp\n      swap1\n      div\n      0xffffffffffffffffffffffffffffffffffffffff\n      and\n      dup2\n      jump\t// out\n        /* \"VulnerablePiggyBank.sol\":291:319  function attack() public { } */\n    tag_16:\n      jump\t// out\n        /* \"VulnerablePiggyBank.sol\":162:198  function deposit() public payable {} */\n    tag_18:\n      jump\t// out\n        /* \"#utility.yul\":7:133   */\n    tag_24:\n        /* \"#utility.yul\":44:51   */\n      0x00\n        /* \"#utility.yul\":84:126   */\n      0xffffffffffffffffffffffffffffffffffffffff\n        /* \"#utility.yul\":77:82   */\n      dup3\n        /* \"#utility.yul\":73:127   */\n      and\n        /* \"#utility.yul\":62:127   */\n      swap1\n      pop\n        /* \"#utility.yul\":7:133   */\n      swap2\n      swap1\n      pop\n      jump\t// out\n        /* \"#utility.yul\":139:235   */\n    tag_25:\n        /* \"#utility.yul\":176:183   */\n      0x00\n        /* \"#utility.yul\":205:229   */\n      tag_30\n        /* \"#utility.yul\":223:228   */\n      dup3\n        /* \"#utility.yul\":205:229   */\n      tag_24\n      jump\t// in\n    tag_30:\n        /* \"#utility.yul\":194:229   */\n      swap1\n      pop\n        /* \"#utility.yul\":139:235   */\n      swap2\n      swap1\n      pop\n      jump\t// out\n        /* \"#utility.yul\":241:359   */\n    tag_26:\n        /* \"#utility.yul\":328:352   */\n      tag_32\n        /* \"#utility.yul\":346:351   */\n      dup2\n        /* \"#utility.yul\":328:352   */\n      tag_25\n      jump\t// in\n    tag_32:\n        /* \"#utility.yul\":323:326   */\n      dup3\n        /* \"#utility.yul\":316:353   */\n      mstore\n        /* \"#utility.yul\":241:359   */\n      pop\n      pop\n      jump\t// out\n        /* \"#utility.yul\":365:587   */\n    tag_13:\n        /* \"#utility.yul\":458:462   */\n      0x00\n        /* \"#utility.yul\":496:498   */\n      0x20\n        /* \"#utility.yul\":485:494   */\n      dup3\n        /* \"#utility.yul\":481:499   */\n      add\n        /* \"#utility.yul\":473:499   */\n      swap1\n      pop\n        /* \"#utility.yul\":509:580   */\n      tag_34\n        /* \"#utility.yul\":577:578   */\n      0x00\n        /* \"#utility.yul\":566:575   */\n      dup4\n        /* \"#utility.yul\":562:579   */\n      add\n        /* \"#utility.yul\":553:559   */\n      dup5\n        /* \"#utility.yul\":509:580   */\n      tag_26\n      jump\t// in\n    tag_34:\n        /* \"#utility.yul\":365:587   */\n      swap3\n      swap2\n      pop\n      pop\n      jump\t// out\n\n    auxdata: 0xa2646970667358221220fa9a93437822c4f224dec376c28a494701fb53e073050de9fba1665d3472cb7f64736f6c634300081e0033\n}\n",
				"bytecode": {
					"linkReferences": {},
					"object": "6080604052348015600e575f5ffd5b50335f5f6101000a81548173ffffffffffffffffffffffffffffffffffffffff021916908373ffffffffffffffffffffffffffffffffffffffff16021790555061019e8061005b5f395ff3fe60806040526004361061003e575f3560e01c80633ccfd60b146100425780638da5cb5b146100585780639e5faafc14610082578063d0e30db014610098575b5f5ffd5b34801561004d575f5ffd5b506100566100a2565b005b348015610063575f5ffd5b5061006c6100e8565b604051610079919061014f565b60405180910390f35b34801561008d575f5ffd5b5061009661010c565b005b6100a061010e565b005b3373ffffffffffffffffffffffffffffffffffffffff166108fc4790811502906040515f60405180830381858888f193505050501580156100e5573d5f5f3e3d5ffd5b50565b5f5f9054906101000a900473ffffffffffffffffffffffffffffffffffffffff1681565b565b565b5f73ffffffffffffffffffffffffffffffffffffffff82169050919050565b5f61013982610110565b9050919050565b6101498161012f565b82525050565b5f6020820190506101625f830184610140565b9291505056fea2646970667358221220fa9a93437822c4f224dec376c28a494701fb53e073050de9fba1665d3472cb7f64736f6c634300081e0033",
					"opcodes": "PUSH1 0x80 PUSH1 0x40 MSTORE CALLVALUE DUP1 ISZERO PUSH1 0xE JUMPI PUSH0 PUSH0 REVERT JUMPDEST POP CALLER PUSH0 PUSH0 PUSH2 0x100 EXP DUP2 SLOAD DUP2 PUSH20 0xFFFFFFFFFFFFFFFFFFFFFFFFFFFFFFFFFFFFFFFF MUL NOT AND SWAP1 DUP4 PUSH20 0xFFFFFFFFFFFFFFFFFFFFFFFFFFFFFFFFFFFFFFFF AND MUL OR SWAP1 SSTORE POP PUSH2 0x19E DUP1 PUSH2 0x5B PUSH0 CODECOPY PUSH0 RETURN INVALID PUSH1 0x80 PUSH1 0x40 MSTORE PUSH1 0x4 CALLDATASIZE LT PUSH2 0x3E JUMPI PUSH0 CALLDATALOAD PUSH1 0xE0 SHR DUP1 PUSH4 0x3CCFD60B EQ PUSH2 0x42 JUMPI DUP1 PUSH4 0x8DA5CB5B EQ PUSH2 0x58 JUMPI DUP1 PUSH4 0x9E5FAAFC EQ PUSH2 0x82 JUMPI DUP1 PUSH4 0xD0E30DB0 EQ PUSH2 0x98 JUMPI JUMPDEST PUSH0 PUSH0 REVERT JUMPDEST CALLVALUE DUP1 ISZERO PUSH2 0x4D JUMPI PUSH0 PUSH0 REVERT JUMPDEST POP PUSH2 0x56 PUSH2 0xA2 JUMP JUMPDEST STOP JUMPDEST CALLVALUE DUP1 ISZERO PUSH2 0x63 JUMPI PUSH0 PUSH0 REVERT JUMPDEST POP PUSH2 0x6C PUSH2 0xE8 JUMP JUMPDEST PUSH1 0x40 MLOAD PUSH2 0x79 SWAP2 SWAP1 PUSH2 0x14F JUMP JUMPDEST PUSH1 0x40 MLOAD DUP1 SWAP2 SUB SWAP1 RETURN JUMPDEST CALLVALUE DUP1 ISZERO PUSH2 0x8D JUMPI PUSH0 PUSH0 REVERT JUMPDEST POP PUSH2 0x96 PUSH2 0x10C JUMP JUMPDEST STOP JUMPDEST PUSH2 0xA0 PUSH2 0x10E JUMP JUMPDEST STOP JUMPDEST CALLER PUSH20 0xFFFFFFFFFFFFFFFFFFFFFFFFFFFFFFFFFFFFFFFF AND PUSH2 0x8FC SELFBALANCE SWAP1 DUP2 ISZERO MUL SWAP1 PUSH1 0x40 MLOAD PUSH0 PUSH1 0x40 MLOAD DUP1 DUP4 SUB DUP2 DUP6 DUP9 DUP9 CALL SWAP4 POP POP POP POP ISZERO DUP1 ISZERO PUSH2 0xE5 JUMPI RETURNDATASIZE PUSH0 PUSH0 RETURNDATACOPY RETURNDATASIZE PUSH0 REVERT JUMPDEST POP JUMP JUMPDEST PUSH0 PUSH0 SWAP1 SLOAD SWAP1 PUSH2 0x100 EXP SWAP1 DIV PUSH20 0xFFFFFFFFFFFFFFFFFFFFFFFFFFFFFFFFFFFFFFFF AND DUP2 JUMP JUMPDEST JUMP JUMPDEST JUMP JUMPDEST PUSH0 PUSH20 0xFFFFFFFFFFFFFFFFFFFFFFFFFFFFFFFFFFFFFFFF DUP3 AND SWAP1 POP SWAP2 SWAP1 POP JUMP JUMPDEST PUSH0 PUSH2 0x139 DUP3 PUSH2 0x110 JUMP JUMPDEST SWAP1 POP SWAP2 SWAP1 POP JUMP JUMPDEST PUSH2 0x149 DUP2 PUSH2 0x12F JUMP JUMPDEST DUP3 MSTORE POP POP JUMP JUMPDEST PUSH0 PUSH1 0x20 DUP3 ADD SWAP1 POP PUSH2 0x162 PUSH0 DUP4 ADD DUP5 PUSH2 0x140 JUMP JUMPDEST SWAP3 SWAP2 POP POP JUMP INVALID LOG2 PUSH5 0x6970667358 0x22 SLT KECCAK256 STATICCALL SWAP11 SWAP4 NUMBER PUSH25 0x22C4F224DEC376C28A494701FB53E073050DE9FBA1665D3472 0xCB PUSH32 0x64736F6C634300081E0033000000000000000000000000000000000000000000 "
				},
				"gasEstimates": {
					"creation": {
						"codeDepositCost": "82800",
						"executionCost": "24391",
						"totalCost": "107191"
					},
					"external": {
						"attack()": "165",
						"deposit()": "163",
						"owner()": "2507",
						"withdraw()": "infinite"
					}
				},
				"methodIdentifiers": {
					"attack()": "9e5faafc",
					"deposit()": "d0e30db0",
					"owner()": "8da5cb5b",
					"withdraw()": "3ccfd60b"
				}
			},
			"storageLayout": {
				"storage": [
					{
						"astId": 3,
						"contract": "VulnerablePiggyBank.sol:VulnerablePiggyBank",
						"label": "owner",
						"offset": 0,
						"slot": "0",
						"type": "t_address"
					}
				],
				"types": {
					"t_address": {
						"encoding": "inplace",
						"label": "address",
						"numberOfBytes": "20"
					}
				}
			},
			"userdoc": {
				"kind": "user",
				"methods": {},
				"version": 1
			}
		}
	}
}